:100000000EC015C014C013C012C011C010C00FC064
:100010000EC00DC00CC00BC00AC009C008C011241E
:100020001FBECFE5D2E0DEBFCDBF02D027C0E8CFF4
:1000300088E087BB48E028EC30E048BB88EE93E0DE
:10004000F9013197F1F70197D9F718BA80ED97E0E8
:10005000F9013197F1F70197D9F748BB80ED97E0A7
:10006000F9013197F1F70197D9F718BA80ED97E0C8
:10007000F9013197F1F70197D9F7DFCFF894FFCF66
:00000001FF
